:020000040000fa
:080000000002040000000000f2
:020000040000fa
:10040000cf9920000e7f24000e018800000000001c
:100410000c000700408320000100200011000700ad
:10042000000020000000e000020032000000020096
:10043000000000002c070200000000000040da006d
:100440000000fe004440a900000020000000e00081
:100450000300320000002000a00188004440a800f2
:100460000000060091018800800078000000eb0089
:1004700015003700e280400032a0b4009101ba00bc
:10048000e280400032a0b4009102ba00e280400055
:1004900032a0b4000002eb00472bde00f507b200eb
:1004a000602ce10004003a000059eb008301e900f0
:1004b000fdff3e00040037006128e100010032002a
:1004c0000082eb00040007001101ba000200e00006
:1004d000e8ff3a00000006003159ba008301e90044
:1004e0000c0032002159ba008301e90008003200f3
:1004f0000400e00003003a00e280400032a0b400b3
:10050000f5ff370011d9ba008301e900faff3a007c
:100510008100e800e180400032a0b4000000060045
:100520000040da000000fe00889fbe008a9fbe00e7
:10053000010578000100e0000400350008003c00df
:100540000000e000200032000500370060001000cd
:10055000e080180002003b0001f02c001a00370078
:100560000004be006011b8006b0920000982cf00b2
:10057000020039000882cf000441b00069425200f5
:100580000e00320008003b008281710061016400ae
:100590008904d1000884d3008b05e8000442e800f8
:1005a000f9ff3a00050037000804440089844c0034
:1005b0008b05e9000442e900fbff3a009e000700ba
:1005c0000af0a70001f0a0004f05be004f04be00d6
:1005d00000000600889fbe008a9fbe008c1f780026
:1005e000bb000700c200330003866c006450e100ca
:1005f000240032006420e100270032006150e10055
:10060000220032006120e100210032008b8542008f
:10061000eb07b1000134b800003ab800080442000a
:1006200089844a00013ab8000030b8008880400050
:1006300009014a00040033000000400081804800a6
:10064000020149008b05e900c909dd008301700042
:100650000100320013002000c814de004814dd0041
:100660004709de001200b200c808de0008847000ee
:100670007100070001f0a1000cf0a70001f0a0003c
:10068000a40037006120e100a60032000801be008e
:100690000200be00f7ff37006150e100fcff3a00a6
:1006a000a0003700889fbe008a9fbe008c1f780084
:1006b000870007008e00330003866c006450e10061
:1006c0002e0032006420e100330032006150e1006e
:1006d0002f0032006120e100310032008585550095
:1006e000eb07b000090020000804200005003700d7
:1006f0000804440089844c000a00310006034300ca
:1007000087834b000001530081815b00f8ff3300b9
:100710000203be000800a0000804440089844c00c5
:10072000f6ff3900c639dd00830173000100320095
:10073000130020008904d1000884d3000998a30085
:10074000050032000800a7000300a0008904d100c2
:100750000884d3008b05e8008904d1000884d30005
:100760000001eb000281d2003300070001f0a1007c
:100770000cf0a70001f0a000660037006420e10043
:10078000680032000801be000200be00f7ff37001b
:100790006120e100630032006000b800f3ff370021
:1007a0000000200001f82700f0ff37000001eb00f7
:1007b0005f0037000001be00c60007000470a700fc
:1007c00003f0a1006509b100160032000d003500ec
:1007d0006828e10006003500f0ff2f00f1ff270038
:1007e0000300e00013003b000100280000000500aa
:1007f00000004000818048008502e900fcff3a00cb
:1008000008003700f88f420002003c008000eb0037
:10081000000005008100d1000080d3008502e800bf
:10082000fcff3a000300e00002003b006000100003
:10083000e080180000000600810020006180550063
:100840000b003d000b00200061fe2f000100e100c5
:100850001d00340082817100610164008904d100af
:100860000884d3000000e800faff3a00710020007d
:1008700061006400030070000200600009003200a3
:1008800061044400e0844c000988a50005003200a2
:100890008b05e8006808e10002003a008904d100f5
:1008a0000884d300f20f20000258e10005003d004b
:1008b000c75ddd00f907b200898075000800780087
:1008c000000006000bf827008b00780000000500f0
:1008d0000004be007f0007000003be000405be0048
:1008e0000200be007b000700844f75000000060078
:1008f0000200be006450e100050036006420e10003
:10090000020036000968a30001003a000800be009a
:100910000160a0004f0678004f05be004f04be00e6
:1009200000000600f0ff2f00f1ff2700f9ff37005d
:10093000889fbe008a9fbe008c9fbe008205780003
:100940000004be00630007000800be006420e10050
:100950000700390002003a00f1ff2700f0ff2f00e6
:100960000160a00012022000d24c88005500370020
:100970006120e10003003a000b00a70001f823000a
:100980005000370001f0a100020021009364240010
:10099000650007000800be0004003500b2fd20001d
:1009a000930c2400620007000004be000005eb0069
:1009b0000b00a6004f0dde0001f0a1000004be00f8
:1009c00032982f0023ea230002ff07000001eb000a
:1009d00003f023000b00a70003f8230057000700d3
:1009e00074ff07000000a7000a00a200cefe070067
:1009f0000b00e000030032000200200003f023009f
:100a00004d00070001f0a2000006be000200200019
:100a100093042400effe07000801be004700070012
:100a2000809fbe000c00be0022a22a00d3a7230094
:100a3000e8fe07004f01be00400007000004be00b2
:100a400001f0a100020020000398230036000700f7
:100a50000800be00190035000001be00ddfe0700e1
:100a60000006be00b2c52900e3622300d9fe0700dc
:100a700022222b00f3942b00300007000c01be0053
:100a8000d4fe0700e273280083c023002b00070078
:100a90000c01be00cffe070042aa2a00a3e22b00f1
:100aa000260007000c01be00cafe07000801be00b8
:100ab000c8fe07000801be00200007000a00a700ca
:100ac00001f0a2004f06be004f05be004f04be005d
:100ad00000000600c70ade00f107b200f50fb20001
:100ae00008003200e1cf4200020032000170a00095
:100af00024000500810f7000010032000408050089
:100b000044000500810f700002003a001400050047
:100b10008502e9000000400081c04800fcff3b0066
:100b20000170a000240005001400200060003700c0
:100b3000040020007900370003f0a200889fbe0067
:100b40008a9fbe008c1f780061ff070068ff33009a
:100b50006450e1004f0032006420e1005200320096
:100b600003826c0007003b000905d0000306d0009b
:100b7000820f54000c065d000200390002003200b2
:100b800089017800030678008582550004003d0045
:100b90000003fd008103fd008502ea008b85420011
:100ba000840f720002003b0060001000e08018001b
:100bb0006011b8000005eb007a28e1000a00390056
:100bc00006007800c75ddd00f707b200878075007a
:100bd0002d003700828171000a01780061056000f4
:100be0008180d1000080d3008502e900f9ff3b003d
:100bf000060440008784480002003b0060041400a3
:100c0000e0841c000988a300070032008a8171007b
:100c100082817100610164008904d1000884d300dd
:100c20008b05e800170037000978a30013003a008d
:100c30000b00e000130034008b05e90008044400b9
:100c400089844c000a4474000978a3000d003a001e
:100c50000b00e000070034008b05e90008044400a5
:100c600089844c0001003a000b0020000978a300a1
:100c7000f7ff32000001eb000200370082817100b3
:100c80000a017800ecfe07000cf0a70001f0a000bc
:100c900020ff37006420e10002003a00838f6c00df
:100ca00020ff33000801be000200be0019ff37001c
:100cb000889fbe008a9fbe00841f780004ff070043
:100cc0004f00780011003300f0ff2f00838f6c007d
:100cd00006003b00040565000a00a7000800370075
:100ce00009f0a6001000200008003700820f540011
:100cf000838f5c00030039001000200001003e00db
:100d00000000200009f0a7000000ea004f05be0027
:100d10004f04be000000e00000000600889fbe00f7
:100d20008a9fbe008c1f78004f26dd00e8fe07007a
:100d3000effe33006120e100430032006250e10029
:100d400041003e003e0039006420e1003c003200da
:100d5000058255000f003b000402e80038003a000d
:100d6000800f5300818f5b00350034000800be0007
:100d700003f0a10001f0a60003f0a0000cf0a70012
:100d80006eff0700e3fe37000603430087834b0036
:100d90000c4646000005530081855b0002003300cd
:100da0000a03be000c00a0000402e900f6ff3b00ad
:100db000850578000602430087824b0004003a0054
:100dc0006000b80009f0a70001f0a000d1fe3700d4
:100dd0000002520081825a000704e0000400330040
:100de0000603430087834b008b05e900faff3700b9
:100df000090578000604be000203be006011b800b9
:100e00008dfe0700e00f5200e08f5a00070035000a
:100e100002003c000c08a300040032000601be00e2
:100e200003f0a0000cf0a70044ff07000a8568004b
:100e300001f0a1000af0a70001f0a000b5fe370004
:100e40000800be00b3fe3700100220000cf0a60020
:080e5000d04c8800b3fe37000e
:020000040000fa
:0200000401f009
:04000800ffff0000f6
:020000040000fa
:0200000401f009
:04000c00fbff0000f6
:020000040000fa
:0200000401f009
:04001000bdff000030
:020000040000fa
:0200000401f009
:040014007fff00006a
:020000040000fa
:1000080090020000900200009002000090020000a0
:100018009002000090020000900200009002000090
:100028009002000090020000900200009002000080
:100038009002000090020000900200009002000070
:100048009002000090020000900200009002000060
:100058009002000090020000900200009002000050
:100068009002000090020000900200009002000040
:100078009002000090020000900200009002000030
:100088009002000090020000900200009002000020
:100098009002000090020000900200009002000010
:1000a8009002000090020000900200009002000000
:1000b80090020000900200009002000090020000f0
:1000c80090020000900200009002000090020000e0
:1000d80090020000900200009002000090020000d0
:1000e80090020000900200009002000090020000c0
:1000f80090020000900200009002000090020000b0
:10010800900200009002000090020000900200009f
:10011800900200009002000090020000900200008f
:10012800900200009002000090020000900200007f
:10013800900200009002000090020000900200006f
:10014800900200009002000090020000900200005f
:10015800900200009002000024080000140800002b
:10016800900200009002000090020000900200003f
:10017800900200009002000090020000900200002f
:10018800900200009002000090020000900200001f
:10019800900200009002000090020000900200000f
:1001a80090020000900200009002000090020000ff
:1001b80090020000900200009002000090020000ef
:1001c80090020000900200009002000090020000df
:1001d80090020000900200009002000090020000cf
:1001e80090020000900200009002000090020000bf
:0801f8009002000090020000db
:020000040000fa
:10020800900200009002000090020000900200009e
:10021800900200009002000090020000900200008e
:10022800900200009002000090020000900200007e
:10023800900200009002000090020000900200006e
:10024800900200009002000090020000900200005e
:10025800900200009002000090020000900200004e
:10026800900200009002000090020000900200003e
:10027800900200009002000090020000900200002e
:10028800900200009002000090020000900200001e
:10029800900200009002000090020000900200000e
:1002a80090020000900200009002000090020000fe
:1002b80090020000900200009002000090020000ee
:1002c80090020000900200009002000090020000de
:1002d80090020000900200009002000090020000ce
:1002e80090020000900200009002000090020000be
:1002f80090020000900200009002000090020000ae
:10030800900200009002000090020000900200009d
:10031800900200009002000090020000900200008d
:10032800900200009002000090020000900200007d
:10033800900200009002000090020000900200006d
:10034800900200009002000090020000900200005d
:100358009002000090020000240800001408000029
:10036800900200009002000090020000900200003d
:10037800900200009002000090020000900200002d
:10038800900200009002000090020000900200001d
:10039800900200009002000090020000900200000d
:1003a80090020000900200009002000090020000fd
:1003b80090020000900200009002000090020000ed
:1003c80090020000900200009002000090020000dd
:1003d80090020000900200009002000090020000cd
:1003e80090020000900200009002000090020000bd
:0803f8009002000090020000d9
:020000040000fa
:100e58000000fa00881f7800e0012000303a88007e
:100e680044c7bf00f043b20044e7b7004174200014
:100e78009140780000ceb30000c0600044e7b7009e
:100e88000000eb00403a880040a7a90042c7bf0015
:100e98000042b2000004e000fcff32000080eb00da
:100ea800601988000000eb00001688000000eb00c5
:100eb80040168800370007000000eb00104088004b
:100ec8001a00370010408000cf80de0094fd070034
:100ed80002fd2000930c2400bcfd07000200200046
:100ee800832c2400edfd0700304088004140880035
:100ef80018408000304080004140800029fe0700f3
:100f080002002000a36f2400b0fd07000001be000e
:100f1800c240dd00a0802000008040000288be00a2
:100f2800104080000000e800104088001140800058
:100f380040062000808f5000e2ff340000002800a7
:100f4800c01f880000002800b01f88000000eb00c8
:100f5800104088000a00370010408000c200dd0001
:100f6800a0802000008040001000be000ffe070097
:100f780020408800104080000000e80010408800f1
:100f88001140800040062000808f5000f2ff34009e
:100f9800eeff37000000fa004ba7a900b17420004b
:100fa8009140780070ceb30000c060004be7b700f6
:100fb8004ae7a900b17420009140780080cfb300bf
:100fc80000c060006040b3004be7b700f3e3a8003f
:100fd800f2e3a800f343a900f243a900f183a900b2
:100fe800013f20009140780000c8b30000c06000b5
:100ff8000004a000f0e3b700f103a80000002800f7
:10100800a01f88008de0a9008dc0a9009de0a80060
:101018009dc0a800f1e3a8000080fa0000000600c7
:10102800801f78000000fa008de0a90020408000b1
:10103800c01f88000080fa004f00780000400600ba
:10104800801f78000000fa008dc0a90020408000b1
:10105800b01f88000080fa004f00780000400600aa
:020000040000fa
:10106800000800009a010000000000009a09000032
:0c1078000200000000000000000000006a
:00000001FF
