:020000040000fa
:080000000002040000000000f2
:020000040000fa
:100400000fcc20000e7f24000e01880000000000a9
:100410000c000700009d20000100200011000700d3
:10042000000020000000e000020032000000020096
:10043000000000002c070200000000000040da006d
:100440000000fe004440a900000020000000e00081
:100450000300320000002000a00188004440a800f2
:100460000000060091018800800078000000eb0089
:1004700015003700e280400032a0b4009101ba00bc
:10048000e280400032a0b4009102ba00e280400055
:1004900032a0b4000002eb00472bde00f507b200eb
:1004a000602ce10004003a000059eb008301e900f0
:1004b000fdff3e00040037006128e100010032002a
:1004c0000082eb00040007001101ba000200e00006
:1004d000e8ff3a00000006003159ba008301e90044
:1004e0000c0032002159ba008301e90008003200f3
:1004f0000400e00003003a00e280400032a0b400b3
:10050000f5ff370011d9ba008301e900faff3a007c
:100510008100e800e180400032a0b4000000060045
:100520000040da000000fe00889fbe008a9fbe00e7
:10053000010578000100e0000400350008003c00df
:100540000000e000200032000500370060001000cd
:10055000e080180002003b0001f02c001a00370078
:100560000004be006011b8006b0920000982cf00b2
:10057000020039000882cf000441b00069425200f5
:100580000e00320008003b008281710061016400ae
:100590008904d1000884d3008b05e8000442e800f8
:1005a000f9ff3a00050037000804440089844c0034
:1005b0008b05e9000442e900fbff3a00fc0007005c
:1005c0000af0a70001f0a0004f05be004f04be00d6
:1005d00000000600889fbe008a9fbe008c1f780026
:1005e000190107002001330003866c006450e1000c
:1005f000240032006420e100270032006150e10055
:10060000220032006120e100210032008b8542008f
:10061000eb07b1000134b800003ab800080442000a
:1006200089844a00013ab8000030b8008880400050
:1006300009014a00040033000000400081804800a6
:10064000020149008b05e900c909dd008301700042
:100650000100320013002000c814de004814dd0041
:100660004709de001200b200c808de0008847000ee
:10067000cf00070001f0a1000cf0a70001f0a000de
:10068000020137006120e100040132000801be00d0
:100690000200be00f7ff37006150e100fcff3a00a6
:1006a000fe003700889fbe008a9fbe008c1f780026
:1006b000e5000700ec00330003866c006450e100a5
:1006c0002e0032006420e100330032006150e1006e
:1006d0002f0032006120e100310032008585550095
:1006e000eb07b000090020000804200005003700d7
:1006f0000804440089844c000a00310006034300ca
:1007000087834b000001530081815b00f8ff3300b9
:100710000203be000800a0000804440089844c00c5
:10072000f6ff3900c639dd00830173000100320095
:10073000130020008904d1000884d3000998a30085
:10074000050032000800a7000300a0008904d100c2
:100750000884d3008b05e8008904d1000884d30005
:100760000001eb000281d2009100070001f0a1001e
:100770000cf0a70001f0a000c40037006420e100e5
:10078000c60032000801be000200be00f7ff3700bd
:100790006120e100c10032006000b800f3ff3700c3
:1007a0000000200001f82700f0ff37000001eb00f7
:1007b000bd00370003f0a200889fbe008a9fbe00e4
:1007c0008c1f7800a0000700a70033006450e100f0
:1007d0004f0032006420e1005200320003826c00be
:1007e00007003b000905d0000306d000820f54002b
:1007f0000c065d0002003900020032008901780019
:10080000030678008582550004003d000003fd00ca
:100810008103fd008502ea008b854200840f72008f
:1008200002003b0060001000e08018006011b8007a
:100830000005eb007a28e1000a0039000600780084
:10084000c75ddd00f707b200878075002d00370017
:10085000828171000a017800610560008180d10009
:100860000080d3008502e900f9ff3b000604400048
:100870008784480002003b0060041400e0841c00f0
:100880000988a300070032008a817100828171000b
:10089000610164008904d1000884d3008b05e8005d
:1008a000170037000978a30013003a000b00e0009e
:1008b000130034008b05e9000804440089844c00cf
:1008c0000a4474000978a3000d003a000b00e00010
:1008d000070034008b05e9000804440089844c00bb
:1008e00001003a000b0020000978a300f7ff320056
:1008f0000001eb0002003700828171000a017800dc
:100900002b0007000cf0a70001f0a0005f003700eb
:100910006420e10002003a00838f6c005f00330026
:100920000801be000200be00580037000001be00f2
:10093000c60007000470a70003f0a1006509b1001c
:10094000160032000d0035006828e1000600350071
:10095000f0ff2f00f1ff27000300e00013003b0031
:1009600001002800000005000000400081804800d0
:100970008502e900fcff3a0008003700f88f4200ca
:1009800002003c008000eb00000005008100d10067
:100990000080d3008502e800fcff3a000300e0007d
:1009a00002003b0060001000e0801800000006001c
:1009b00081002000618055000b003d000b002000ed
:1009c00061fe2f000100e1001d00340082817100f2
:1009d000610164008904d1000884d3000000e800ac
:1009e000faff3a007100200061006400030070000b
:1009f000020060000900320061044400e0844c0001
:100a00000988a500050032008b05e8006808e100b0
:100a100002003a008904d1000884d300f20f2000bc
:100a20000258e10005003d00c75ddd00f907b20096
:100a30008980750008007800000006000bf8270088
:100a40008b007800000005000004be007f00070056
:100a50000003be000405be000200be007b000700cc
:100a6000844f7500000006000200be006450e100e3
:100a7000050036006420e100020036000968a3008a
:100a800001003a000800be000160a0004f06780097
:100a90004f05be004f04be0000000600f0ff2f000f
:100aa000f1ff2700f9ff3700889fbe008a9fbe0034
:100ab0008c9fbe00820578000004be006300070022
:100ac0000800be006420e1000700390002003a007f
:100ad000f1ff2700f0ff2f000160a00012022000ac
:100ae000f2658800550037006120e10003003a00fc
:100af0000b00a70001f823005000370001f0a1000f
:100b00000200210093642400650007000800be0075
:100b100004003500b2fd2000930c240062000700a1
:100b20000004be000005eb000b00a6004f0dde0028
:100b300001f0a1000004be0032982f0023ea230038
:100b4000a4fe07000001eb0003f023000b00a70048
:100b500003f8230018ff070074ff07000000a70038
:100b60000a00a20070fe07000b00e0000300320044
:100b70000200200003f023000eff070001f0a20096
:100b80000006be00020020009304240091fe07002e
:100b90000801be0008ff0700809fbe000c00be00d9
:100ba00022a22a00d3a723008afe07004f01be001d
:100bb00001ff07000004be0001f0a10002002000b8
:100bc00003982300360007000800be001900350016
:100bd0000001be007ffe07000006be00b2c529006e
:100be000e36223007bfe070022222b00f3942b00fc
:100bf000f1fe07000c01be0076fe0700e27328003c
:100c000083c02300ecfe07000c01be0071fe07004c
:100c100042aa2a00a3e22b00e7fe07000c01be0057
:100c20006cfe07000801be006afe07000801be0056
:100c3000e1fe07000a00a70001f0a2004f06be0077
:100c40004f05be004f04be0000000600c70ade00cc
:100c5000f107b200f50fb20008003200e1cf420008
:100c6000020032000170a00024000500810f700016
:100c7000010032000408050044000500810f7000e7
:100c800002003a00140005008502e900000040005f
:100c900081c04800fcff3b000170a000240005005b
:100ca0001400200002003700040020001b00370061
:100cb000889fbe008a9fbe00841f780062ff0700e5
:100cc0004f00780011003300f0ff2f00838f6c007d
:100cd00006003b00040565000a00a7000800370075
:100ce00009f0a6001000200008003700820f540011
:100cf000838f5c00030039001000200001003e00db
:100d00000000200009f0a7000000ea004f05be0027
:100d10004f04be000000e00000000600889fbe00f7
:100d20008a9fbe008c1f78004f26dd0046ff07001b
:100d30004dff33006120e100430032006250e100ca
:100d400041003e003e0039006420e1003c003200da
:100d5000058255000f003b000402e80038003a000d
:100d6000800f5300818f5b00350034000800be0007
:100d700003f0a10001f0a60003f0a0000cf0a70012
:100d80008dfe070041ff37000603430087834b00b9
:100d90000c4646000005530081855b0002003300cd
:100da0000a03be000c00a0000402e900f6ff3b00ad
:100db000850578000602430087824b0004003a0054
:100dc0006000b80009f0a70001f0a0002fff370075
:100dd0000002520081825a000704e0000400330040
:100de0000603430087834b008b05e900faff3700b9
:100df000090578000604be000203be006011b800b9
:100e0000ebfe0700e00f5200e08f5a0007003500ac
:100e100002003c000c08a300040032000601be00e2
:100e200003f0a0000cf0a70063fe07000a8568002d
:100e300001f0a1000af0a70001f0a00013ff3700a5
:100e40000800be0011ff3700100220000cf0a600c1
:080e5000f065880011ff370076
:020000040000fa
:0200000401f009
:04000800ffff0000f6
:020000040000fa
:0200000401f009
:04000c00fbff0000f6
:020000040000fa
:0200000401f009
:04001000bdff000030
:020000040000fa
:0200000401f009
:040014007fff00006a
:020000040000fa
:10000800900200005409000094090000a0090000b3
:10001800a609000090020000900200009002000073
:100028009002000090020000900200009002000080
:100038009002000090020000900200009002000070
:1000480090020000900200009002000038090000b1
:100058009002000090020000900200009002000050
:100068009002000090020000900200009002000040
:100078009002000090020000900200009002000030
:100088009002000090020000900200009002000020
:100098009002000090020000900200009002000010
:1000a8009002000090020000900200009002000000
:1000b80090020000900200009002000090020000f0
:1000c80090020000900200009002000090020000e0
:1000d80090020000900200009002000090020000d0
:1000e80090020000900200009002000090020000c0
:1000f80090020000900200009002000090020000b0
:10010800900200009002000090020000900200009f
:10011800900200009002000090020000900200008f
:10012800900200009002000090020000900200007f
:10013800900200009002000090020000900200006f
:10014800900200009002000090020000900200005f
:100158009002000090020000280900001809000021
:10016800900200009002000090020000900200003f
:10017800900200009002000090020000900200002f
:10018800900200009002000090020000900200001f
:10019800900200009002000090020000900200000f
:1001a80090020000900200009002000090020000ff
:1001b80090020000900200009002000090020000ef
:1001c80090020000900200009002000090020000df
:1001d80090020000900200009002000090020000cf
:1001e80090020000900200009002000090020000bf
:0801f8009002000090020000db
:020000040000fa
:1002080090020000b8090000be090000c4090000ff
:10021800ca0900009002000090020000900200004d
:10022800900200009002000090020000900200007e
:10023800900200009002000090020000900200006e
:1002480090020000900200009002000038090000af
:10025800900200009002000090020000900200004e
:10026800900200009002000090020000900200003e
:10027800900200009002000090020000900200002e
:10028800900200009002000090020000900200001e
:10029800900200009002000090020000900200000e
:1002a80090020000900200009002000090020000fe
:1002b80090020000900200009002000090020000ee
:1002c80090020000900200009002000090020000de
:1002d80090020000900200009002000090020000ce
:1002e80090020000900200009002000090020000be
:1002f80090020000900200009002000090020000ae
:10030800900200009002000090020000900200009d
:10031800900200009002000090020000900200008d
:10032800900200009002000090020000900200007d
:10033800900200009002000090020000900200006d
:10034800900200009002000090020000900200005d
:10035800900200009002000028090000180900001f
:10036800900200009002000090020000900200003d
:10037800900200009002000090020000900200002d
:10038800900200009002000090020000900200001d
:10039800900200009002000090020000900200000d
:1003a80090020000900200009002000090020000fd
:1003b80090020000900200009002000090020000ed
:1003c80090020000900200009002000090020000dd
:1003d80090020000900200009002000090020000cd
:1003e80090020000900200009002000090020000bd
:0803f8009002000090020000d9
:020000040000fa
:100e58000000fa00881f7800e0012000303a88007e
:100e680044c7bf00f043b20044e7b7004174200014
:100e78009140780000ceb30000c0600044e7b7009e
:100e88000000eb00403a880040a7a90042c7bf0015
:100e98000042b2000004e000fcff32000080eb00da
:100ea800601988000000eb00001688000000eb00c5
:100eb800401688000000eb00601688008a000700d2
:100ec800660007000000eb0000408800460037007d
:100ed80000408000cf80de0091fd070002fd200069
:100ee800930c2400b9fd070002002000832c240085
:100ef800eafd070030408800414088000840800033
:100f0800304080004140800026fe0700020020009b
:100f1800a36f2400adfd07000001be00c240dd0044
:100f2800e0802000008040000288be000040800071
:100f3800cf80de007afd070002fd20009314240014
:100f4800a2fd070002002000832c2400d3fd070027
:100f58005040880061408800084080005040800070
:100f6800614080000ffe070002002000a36f2400ec
:100f780096fd07000001be00c240dd00e099200098
:100f8800008040000288be000840800000408000c9
:100f9800c200dd00e0802000008040001002be009a
:100fa80000408000c200dd00e09920000080400081
:100fb8001001be000400be00fdfd07000200200075
:100fc80003f0230081fd07000001be00c240dd00e0
:100fd800e0b22000008040000288be00004080008f
:100fe8000000e80000408800014080004006200022
:100ff800808f5000b6ff34000000eb0000408800ee
:101008001100370000408000c200dd00e0b220007f
:10101800008040001000be0042fe0700104088001b
:1010280000408000c200dd00e0b2200000804000e7
:101038001000be003bfe07002040880000408000f2
:101048000000e800004088000140800040062000c1
:10105800808f5000ebff3400e7ff37000000fa00f4
:101068004ba7a900b17420009140780070ceb3005e
:1010780000c060004be7b7004ae7a900b174200040
:101088009140780080cfb30000c060006040b3009a
:101098004be7b700f3e3a800f2e3a800f343a90085
:1010a800f243a900f183a900013f20009140780094
:1010b80000c8b30000c060000004a000f0e3b7005f
:1010c800f103a80000002800a01f88008de0a900f7
:1010d8008dc0a9009de0a8009dc0a800f1e3a8006c
:1010e8000080fa00000006000200fa00113a8000b1
:1010f800f0fb2f00008160006104200070052000d3
:10110800237420008149780080497800824978005a
:101118009000200020358800816c200091407800e4
:1011280000ceb30000c060003040b300c8e6b7008e
:10113800113a800000042000008170006104200042
:1011480070052000237420008149780080497800c8
:1011580082497800c922a80021e2a9002342a900f7
:1011680021a2a90020c2a9002182a9002162a80009
:101178001122200091407800c0cfb30000c0600069
:1011880021e2b7002082a9002002a9000122200044
:101198009140780090cfb30000c0600020e2b70013
:1011a80020a2a9002062a900301020004011880068
:1011b80023c2a9002362a90022a2a9008560a90070
:1011c80022c2bf00f043b20022e2b700910a200019
:1011d80091407800f0c8b30000c0600001c4b300bb
:1011e80001407000a9e0b70023a2a90023e2a900ea
:1011f8009560a8009580a90021e2a8002342a800d4
:101208000000eb00000f780002003700000000002b
:101218001e0fe800f00321009e0f1000fbff3400b2
:101228000080fa0000000600801f78000000fa0025
:101238008de0a90010408000c01f88000080fa00df
:101248004f00780000400600801f78000000fa0078
:101258008dc0a90020408000b01f88000080fa00df
:101268004f00780000400600801f78000200fa0056
:101278008560a90030118000000f780023c2bf00ec
:10128800624060000004e000fcff3a001e007800a5
:10129800201188000080fa004f0078000040060006
:1012a800809fbe000400fa008020a90000002000f2
:1012b80081002000008fbe000080eb0060168800cf
:1012c800040037000080eb008080eb001e0f400018
:1012d8005e9748001e00be00e00f5000e08f5800e7
:1012e800f8ff3c000000200081002000008fbe00b5
:1012f8000000eb0060168800040037000080eb0057
:101308008080eb001e0f40005e9748001e00be0064
:10131800e00f5000e08f5800f8ff3c00e3ff370073
:101328000000fa00000000000000000000000000bb
:101338008060a900ffff37000000fa008040a90084
:10134800ffff3700801f78000000fa00000000004f
:1013580000000000000000008080a9000080eb0071
:1013680060168800ffff37000000fa008020a900ff
:10137800ffff37000000fa008060a900ffff370078
:101388000000fa008040a900ffff37000000fa00c3
:081398008080a900ffff37006f
:020000040000fa
:1013a00000080000be04000000000000be0c0000a9
:0c13b0000200000000000000000000002f
:00000001FF
