:020000040000fa
:080000000002040000000000f2
:020000040000fa
:100400000f8020000e7f24000e01880000000000f5
:100410000c000700803820000100200011000700b8
:10042000000020000000e000020032000000020096
:100430000000000094020200000000000040da000a
:100440000000fe004440a900000020000000e00081
:100450000300320000002000a00188004440a800f2
:100460000000060091018800800078000000eb0089
:1004700015003700e280400032a0b4009101ba00bc
:10048000e280400032a0b4009102ba00e280400055
:1004900032a0b4000002eb00472bde00f507b200eb
:1004a000602ce10004003a000059eb008301e900f0
:1004b000fdff3e00040037006128e100010032002a
:1004c0000082eb00040007001101ba000200e00006
:1004d000e8ff3a00000006003159ba008301e90044
:1004e0000c0032002159ba008301e90008003200f3
:1004f0000400e00003003a00e280400032a0b400b3
:10050000f5ff370011d9ba008301e900faff3a007c
:100510008100e800e180400032a0b4000000060045
:080520000040da000000fe00bb
:020000040000fa
:0200000401f009
:04000800ffff0000f6
:020000040000fa
:0200000401f009
:04000c00fbff0000f6
:020000040000fa
:0200000401f009
:04001000bdff000030
:020000040000fa
:0200000401f009
:040014007fff00006a
:020000040000fa
:1000080090020000900200009002000090020000a0
:100018009002000090020000900200009002000090
:100028009002000090020000900200009002000080
:100038009002000090020000900200009002000070
:100048009002000090020000900200006c03000083
:100058009002000090020000900200009002000050
:100068009002000090020000900200009002000040
:100078009002000090020000900200009002000030
:100088009002000090020000900200009002000020
:100098009002000090020000900200009002000010
:1000a8009002000090020000900200009002000000
:1000b80090020000900200009002000090020000f0
:1000c80090020000900200009002000090020000e0
:1000d80090020000900200009002000090020000d0
:1000e80090020000900200009002000090020000c0
:1000f80090020000900200009002000090020000b0
:10010800900200009002000090020000900200009f
:10011800900200009002000090020000900200008f
:10012800900200009002000090020000900200007f
:10013800900200009002000090020000900200006f
:10014800900200009002000090020000900200005f
:10015800900200009002000090020000900200004f
:10016800900200009002000090020000900200003f
:10017800900200009002000090020000900200002f
:10018800900200009002000090020000900200001f
:10019800900200009002000090020000900200000f
:1001a80090020000900200009002000090020000ff
:1001b80090020000900200009002000090020000ef
:1001c80090020000900200009002000090020000df
:1001d80090020000900200009002000090020000cf
:1001e80090020000900200009002000090020000bf
:0801f8009002000090020000db
:020000040000fa
:10020800900200009002000090020000900200009e
:10021800900200009002000090020000900200008e
:10022800900200009002000090020000900200007e
:10023800900200009002000090020000900200006e
:100248009002000090020000900200006c03000081
:10025800900200009002000090020000900200004e
:10026800900200009002000090020000900200003e
:10027800900200009002000090020000900200002e
:10028800900200009002000090020000900200001e
:10029800900200009002000090020000900200000e
:1002a80090020000900200009002000090020000fe
:1002b80090020000900200009002000090020000ee
:1002c80090020000900200009002000090020000de
:1002d80090020000900200009002000090020000ce
:1002e80090020000900200009002000090020000be
:1002f80090020000900200009002000090020000ae
:10030800900200009002000090020000900200009d
:10031800900200009002000090020000900200008d
:10032800900200009002000090020000900200007d
:10033800900200009002000090020000900200006d
:10034800900200009002000090020000900200005d
:10035800900200009002000090020000900200004d
:10036800900200009002000090020000900200003d
:10037800900200009002000090020000900200002d
:10038800900200009002000090020000900200001d
:10039800900200009002000090020000900200000d
:1003a80090020000900200009002000090020000fd
:1003b80090020000900200009002000090020000ed
:1003c80090020000900200009002000090020000dd
:1003d80090020000900200009002000090020000cd
:1003e80090020000900200009002000090020000bd
:0803f8009002000090020000d9
:020000040000fa
:100528000000fa00e0012000303a880044c7bf000c
:10053800f043b20044e7b7004174200091407800ce
:1005480000ceb30000c0600044e7b7000000eb0035
:10055800403a880040a7a90042c7bf000042b20045
:100568000004e000fcff32000080eb006019880006
:100578000000eb00001688000000eb004016880021
:100588000000eb006016880001000700ffff37003d
:100598000200fa00113a8000f0fb2f000081600091
:1005a8006104200070052000237420008149780030
:1005b8008049780082497800900020002035880022
:1005c800816c20009140780000ceb30000c060002c
:1005d8003040b300c8e6b700113a8000000420009c
:1005e8000081700061042000700520002374200041
:1005f800814978008049780082497800c922a8009a
:1006080021e2a9002342a90021a2a90020c2a90031
:100618002182a9002162a8001122200091407800bf
:10062800c0cfb30000c0600021e2b7002082a9005b
:100638002002a900012220009140780090cfb30049
:1006480000c0600020e2b70020a2a9002062a90033
:10065800301020004011880023c2a9002362a9009d
:1006680022a2a9008560a90022c2bf00f043b200ff
:1006780022e2b700910a200091407800f0c8b30048
:1006880000c0600001c4b30001407000a9e0b700d9
:1006980023a2a90023e2a9009560a8009580a900db
:1006a80021e2a8002342a8000000eb00000f780018
:1006b80002003700000000001e0fe800f0032100d0
:1006c8009e0f1000fbff34000080fa0000000600b7
:1006d800801f78000200fa008560a90030118000b0
:1006e800000f780023c2bf00624060000004e000f1
:1006f800fcff3a001e007800201188000080fa00f4
:080708004f00780000400600dc
:020000040000fa
:0407100000000000e5
:00000001FF
