:020000040000fa
:080000000002040000000000f2
:020000040000fa
:100400000f8020000e7f24000e01880000000000f5
:100410000c000700c03a2000010020001100070076
:10042000000020000000e000020032000000020096
:100430000000000094020200000000000040da000a
:100440000000fe004440a900000020000000e00081
:100450000300320000002000a00188004440a800f2
:100460000000060091018800800078000000eb0089
:1004700015003700e280400032a0b4009101ba00bc
:10048000e280400032a0b4009102ba00e280400055
:1004900032a0b4000002eb00472bde00f507b200eb
:1004a000602ce10004003a000059eb008301e900f0
:1004b000fdff3e00040037006128e100010032002a
:1004c0000082eb00040007001101ba000200e00006
:1004d000e8ff3a00000006003159ba008301e90044
:1004e0000c0032002159ba008301e90008003200f3
:1004f0000400e00003003a00e280400032a0b400b3
:10050000f5ff370011d9ba008301e900faff3a007c
:100510008100e800e180400032a0b4000000060045
:080520000040da000000fe00bb
:020000040000fa
:0200000401f009
:04000800ffff0000f6
:020000040000fa
:0200000401f009
:04000c00fbff0000f6
:020000040000fa
:0200000401f009
:04001000bdff000030
:020000040000fa
:0200000401f009
:040014007fff00006a
:020000040000fa
:100008009002000038030000740300008003000021
:100018008603000090020000900200009002000099
:10002800900200009002000090020000f802000018
:100038009002000090020000900200009002000070
:100048009002000090020000900200009002000060
:100058009002000090020000900200009002000050
:100068009002000090020000900200009002000040
:100078009002000090020000900200009002000030
:100088009002000090020000900200009002000020
:100098009002000090020000900200009002000010
:1000a8009002000090020000900200009002000000
:1000b80090020000900200009002000090020000f0
:1000c80090020000900200009002000090020000e0
:1000d80090020000900200009002000090020000d0
:1000e80090020000900200009002000090020000c0
:1000f80090020000900200009002000090020000b0
:10010800900200009002000090020000900200009f
:10011800900200009002000090020000900200008f
:10012800900200009002000090020000900200007f
:10013800900200009002000090020000900200006f
:10014800900200009002000090020000900200005f
:10015800900200009002000090020000900200004f
:10016800900200009002000090020000900200003f
:10017800900200009002000090020000900200002f
:10018800900200009002000090020000900200001f
:10019800900200009002000090020000900200000f
:1001a80090020000900200009002000090020000ff
:1001b80090020000900200009002000090020000ef
:1001c80090020000900200009002000090020000df
:1001d80090020000900200009002000090020000cf
:1001e80090020000900200009002000090020000bf
:0801f8009002000090020000db
:020000040000fa
:1002080090020000940300009a030000a00300007d
:10021800a603000090020000900200009002000077
:10022800900200009002000090020000f802000016
:10023800900200009002000090020000900200006e
:10024800900200009002000090020000900200005e
:10025800900200009002000090020000900200004e
:10026800900200009002000090020000900200003e
:10027800900200009002000090020000900200002e
:10028800900200009002000090020000900200001e
:10029800900200009002000090020000900200000e
:1002a80090020000900200009002000090020000fe
:1002b80090020000900200009002000090020000ee
:1002c80090020000900200009002000090020000de
:1002d80090020000900200009002000090020000ce
:1002e80090020000900200009002000090020000be
:1002f80090020000900200009002000090020000ae
:10030800900200009002000090020000900200009d
:10031800900200009002000090020000900200008d
:10032800900200009002000090020000900200007d
:10033800900200009002000090020000900200006d
:10034800900200009002000090020000900200005d
:10035800900200009002000090020000900200004d
:10036800900200009002000090020000900200003d
:10037800900200009002000090020000900200002d
:10038800900200009002000090020000900200001d
:10039800900200009002000090020000900200000d
:1003a80090020000900200009002000090020000fd
:1003b80090020000900200009002000090020000ed
:1003c80090020000900200009002000090020000dd
:1003d80090020000900200009002000090020000cd
:1003e80090020000900200009002000090020000bd
:0803f8009002000090020000d9
:020000040000fa
:100528000000fa00e0012000303a880044c7bf000c
:10053800f043b20044e7b7004174200091407800ce
:1005480000ceb30000c0600044e7b7000000eb0035
:10055800403a880040a7a90042c7bf000042b20045
:100568000004e000fcff32000080eb006019880006
:100578000000eb00001688000000eb004016880021
:100588000000eb006016880001000700ffff37003d
:100598000000fa0005e1a9000421a90004c1a9008e
:1005a80000012800200888000000eb0000088800ef
:1005b8007009200010088800510a20009140780036
:1005c800f0c8b30000c0600001c4b300014070006f
:1005d800a5e0b7008460a9009460a80005e1a80020
:1005e8000080fa0000000600809fbe00821f78008d
:1005f8000200fa008460a90005e1a9001e0fe800c6
:10060800f0ff27009e0f100010003a000000eb00da
:10061800000f7800ccc2bf000080fb004200de0063
:100628006140600000c0ea00614060006140600015
:100638004201dd00c12c200091407800b0cfb3000a
:1006480000c0600002407000cce2b7000000eb0080
:100658000008880005e1a8000080fa004f01780032
:100668004f00be0000400600809fbe000400fa0054
:100678008020a9000000200081002000008fbe001b
:10068800cc42a800040037000080eb008080eb001b
:100698001e0f40005e9748001e00be00e00f50008d
:1006a800e08f5800f8ff3c00000020008100200087
:1006b800008fbe00cc42a900040037000080eb0088
:1006c8008080eb001e0f40005e9748001e00be00b1
:1006d800e00f5000e08f5800f8ff3c00e5ff3700be
:1006e8000000fa0000000000000000000000000008
:1006f8008060a900ffff37000000fa008040a900d1
:10070800ffff37000000fa000000000000000000b2
:10071800000000008080a900cc42a800ffff37003d
:100728000000fa008020a900ffff37000000fa004f
:100738008060a900ffff37000000fa008040a90090
:10074800ffff37000000fa008080a900ffff370094
:020000040000fa
:04075800000000009d
:00000001FF
